{
  "contractName": "Gallery",
  "abi": [
    {
      "constant": false,
      "inputs": [
        {
          "name": "value",
          "type": "uint256"
        }
      ],
      "name": "setComission",
      "outputs": [],
      "payable": false,
      "stateMutability": "nonpayable",
      "type": "function"
    },
    {
      "constant": true,
      "inputs": [],
      "name": "minSell",
      "outputs": [
        {
          "name": "",
          "type": "uint256"
        }
      ],
      "payable": false,
      "stateMutability": "view",
      "type": "function"
    },
    {
      "constant": false,
      "inputs": [
        {
          "name": "_addressToken",
          "type": "address"
        }
      ],
      "name": "setToken",
      "outputs": [],
      "payable": false,
      "stateMutability": "nonpayable",
      "type": "function"
    },
    {
      "constant": true,
      "inputs": [
        {
          "name": "",
          "type": "uint256"
        }
      ],
      "name": "pictures",
      "outputs": [
        {
          "name": "sender",
          "type": "address"
        },
        {
          "name": "referenceImage",
          "type": "string"
        },
        {
          "name": "description",
          "type": "string"
        },
        {
          "name": "createdAt",
          "type": "uint256"
        },
        {
          "name": "hearts",
          "type": "uint256"
        }
      ],
      "payable": false,
      "stateMutability": "view",
      "type": "function"
    },
    {
      "constant": false,
      "inputs": [
        {
          "name": "amount",
          "type": "uint256"
        }
      ],
      "name": "sellHeart",
      "outputs": [],
      "payable": false,
      "stateMutability": "nonpayable",
      "type": "function"
    },
    {
      "constant": false,
      "inputs": [
        {
          "name": "amount",
          "type": "uint256"
        }
      ],
      "name": "buyHeart",
      "outputs": [],
      "payable": true,
      "stateMutability": "payable",
      "type": "function"
    },
    {
      "constant": true,
      "inputs": [],
      "name": "owner",
      "outputs": [
        {
          "name": "",
          "type": "address"
        }
      ],
      "payable": false,
      "stateMutability": "view",
      "type": "function"
    },
    {
      "constant": false,
      "inputs": [
        {
          "name": "value",
          "type": "uint256"
        }
      ],
      "name": "setPrice",
      "outputs": [],
      "payable": false,
      "stateMutability": "nonpayable",
      "type": "function"
    },
    {
      "constant": true,
      "inputs": [],
      "name": "price",
      "outputs": [
        {
          "name": "",
          "type": "uint256"
        }
      ],
      "payable": false,
      "stateMutability": "view",
      "type": "function"
    },
    {
      "constant": true,
      "inputs": [],
      "name": "commision",
      "outputs": [
        {
          "name": "",
          "type": "uint256"
        }
      ],
      "payable": false,
      "stateMutability": "view",
      "type": "function"
    },
    {
      "constant": false,
      "inputs": [
        {
          "name": "value",
          "type": "uint256"
        }
      ],
      "name": "setMinSell",
      "outputs": [],
      "payable": false,
      "stateMutability": "nonpayable",
      "type": "function"
    },
    {
      "constant": false,
      "inputs": [
        {
          "name": "newOwner",
          "type": "address"
        }
      ],
      "name": "transferOwnership",
      "outputs": [],
      "payable": false,
      "stateMutability": "nonpayable",
      "type": "function"
    },
    {
      "inputs": [
        {
          "name": "_token",
          "type": "address"
        }
      ],
      "payable": false,
      "stateMutability": "nonpayable",
      "type": "constructor"
    },
    {
      "anonymous": false,
      "inputs": [
        {
          "indexed": false,
          "name": "reference",
          "type": "string"
        },
        {
          "indexed": false,
          "name": "message",
          "type": "string"
        }
      ],
      "name": "OnCreatePicture",
      "type": "event"
    },
    {
      "anonymous": false,
      "inputs": [
        {
          "indexed": false,
          "name": "sender",
          "type": "address"
        },
        {
          "indexed": false,
          "name": "reference",
          "type": "string"
        },
        {
          "indexed": false,
          "name": "message",
          "type": "string"
        },
        {
          "indexed": false,
          "name": "createdAt",
          "type": "uint256"
        }
      ],
      "name": "OnCreateComment",
      "type": "event"
    },
    {
      "anonymous": false,
      "inputs": [
        {
          "indexed": true,
          "name": "previousOwner",
          "type": "address"
        },
        {
          "indexed": true,
          "name": "newOwner",
          "type": "address"
        }
      ],
      "name": "OwnershipTransferred",
      "type": "event"
    },
    {
      "constant": false,
      "inputs": [
        {
          "name": "reference",
          "type": "string"
        },
        {
          "name": "amount",
          "type": "uint256"
        }
      ],
      "name": "sendHeartToPicture",
      "outputs": [],
      "payable": false,
      "stateMutability": "nonpayable",
      "type": "function"
    },
    {
      "constant": false,
      "inputs": [
        {
          "name": "reference",
          "type": "string"
        },
        {
          "name": "description",
          "type": "string"
        }
      ],
      "name": "create",
      "outputs": [],
      "payable": false,
      "stateMutability": "nonpayable",
      "type": "function"
    },
    {
      "constant": false,
      "inputs": [
        {
          "name": "reference",
          "type": "string"
        },
        {
          "name": "message",
          "type": "string"
        }
      ],
      "name": "createComment",
      "outputs": [],
      "payable": false,
      "stateMutability": "nonpayable",
      "type": "function"
    },
    {
      "constant": true,
      "inputs": [
        {
          "name": "reference",
          "type": "string"
        }
      ],
      "name": "getPhotoByReference",
      "outputs": [
        {
          "name": "",
          "type": "address"
        },
        {
          "name": "",
          "type": "string"
        },
        {
          "name": "",
          "type": "string"
        },
        {
          "name": "",
          "type": "uint256"
        },
        {
          "name": "",
          "type": "uint256"
        },
        {
          "name": "",
          "type": "uint256"
        }
      ],
      "payable": false,
      "stateMutability": "view",
      "type": "function"
    },
    {
      "constant": true,
      "inputs": [
        {
          "name": "index",
          "type": "uint256"
        }
      ],
      "name": "getPhotoByIndex",
      "outputs": [
        {
          "name": "",
          "type": "address"
        },
        {
          "name": "",
          "type": "string"
        },
        {
          "name": "",
          "type": "string"
        },
        {
          "name": "",
          "type": "uint256"
        },
        {
          "name": "",
          "type": "uint256"
        },
        {
          "name": "",
          "type": "uint256"
        }
      ],
      "payable": false,
      "stateMutability": "view",
      "type": "function"
    },
    {
      "constant": true,
      "inputs": [
        {
          "name": "index",
          "type": "uint256"
        }
      ],
      "name": "getMyPhotoByIndex",
      "outputs": [
        {
          "name": "",
          "type": "address"
        },
        {
          "name": "",
          "type": "string"
        },
        {
          "name": "",
          "type": "string"
        },
        {
          "name": "",
          "type": "uint256"
        },
        {
          "name": "",
          "type": "uint256"
        },
        {
          "name": "",
          "type": "uint256"
        }
      ],
      "payable": false,
      "stateMutability": "view",
      "type": "function"
    },
    {
      "constant": true,
      "inputs": [
        {
          "name": "reference",
          "type": "string"
        },
        {
          "name": "index",
          "type": "uint256"
        }
      ],
      "name": "getCommentByIndex",
      "outputs": [
        {
          "name": "",
          "type": "address"
        },
        {
          "name": "",
          "type": "string"
        },
        {
          "name": "",
          "type": "uint256"
        }
      ],
      "payable": false,
      "stateMutability": "view",
      "type": "function"
    },
    {
      "constant": true,
      "inputs": [],
      "name": "getMyPhotoCount",
      "outputs": [
        {
          "name": "",
          "type": "uint256"
        }
      ],
      "payable": false,
      "stateMutability": "view",
      "type": "function"
    },
    {
      "constant": true,
      "inputs": [
        {
          "name": "reference",
          "type": "string"
        }
      ],
      "name": "getCommentCount",
      "outputs": [
        {
          "name": "",
          "type": "uint256"
        }
      ],
      "payable": false,
      "stateMutability": "view",
      "type": "function"
    },
    {
      "constant": true,
      "inputs": [],
      "name": "getCount",
      "outputs": [
        {
          "name": "",
          "type": "uint256"
        }
      ],
      "payable": false,
      "stateMutability": "view",
      "type": "function"
    }
  ],
  "bytecode": "0x6060604052600a6002556611c37937e0800060035566038d7ea4c68000600455341561002a57600080fd5b604051602080612d0383398101604052808051906020019091905050336000806101000a81548173ffffffffffffffffffffffffffffffffffffffff021916908373ffffffffffffffffffffffffffffffffffffffff160217905550336000806101000a81548173ffffffffffffffffffffffffffffffffffffffff021916908373ffffffffffffffffffffffffffffffffffffffff160217905550600073ffffffffffffffffffffffffffffffffffffffff168173ffffffffffffffffffffffffffffffffffffffff1614151561013e5780600160006101000a81548173ffffffffffffffffffffffffffffffffffffffff021916908373ffffffffffffffffffffffffffffffffffffffff1602179055505b50612bb58061014e6000396000f300606060405260043610610128576000357c0100000000000000000000000000000000000000000000000000000000900463ffffffff168063060857b81461012d5780630be80f39146102b75780631302973a146102da578063144fa6d714610303578063198e2b8a1461033c5780633164478f146103dc5780634a2911421461052c578063705b9f5b146106af57806375d652d7146107c85780637773698f146107eb5780638da5cb5b1461080357806391b7f5ed14610858578063a035b1fe1461087b578063a1edee49146108a4578063a87d942c14610944578063b4c0bd2a1461096d578063b95edbf914610996578063d23d2b67146109bf578063ded5b7ed14610a25578063ebfc2f2e14610a48578063f2fde38b14610b98578063f7f7c47d14610bd1575b600080fd5b341561013857600080fd5b610188600480803590602001908201803590602001908080601f01602080910402602001604051908101604052809392919081815260200183838082843782019150505050505091905050610c42565b604051808773ffffffffffffffffffffffffffffffffffffffff1673ffffffffffffffffffffffffffffffffffffffff1681526020018060200180602001868152602001858152602001848152602001838103835288818151815260200191508051906020019080838360005b838110156102105780820151818401526020810190506101f5565b50505050905090810190601f16801561023d5780820380516001836020036101000a031916815260200191505b50838103825287818151815260200191508051906020019080838360005b8381101561027657808201518184015260208101905061025b565b50505050905090810190601f1680156102a35780820380516001836020036101000a031916815260200191505b509850505050505050505060405180910390f35b34156102c257600080fd5b6102d86004808035906020019091905050610ead565b005b34156102e557600080fd5b6102ed610f12565b6040518082815260200191505060405180910390f35b341561030e57600080fd5b61033a600480803573ffffffffffffffffffffffffffffffffffffffff16906020019091905050610f18565b005b341561034757600080fd5b6103da600480803590602001908201803590602001908080601f0160208091040260200160405190810160405280939291908181526020018383808284378201915050505050509190803590602001908201803590602001908080601f01602080910402602001604051908101604052809392919081815260200183838082843782019150505050505091905050610fb7565b005b34156103e757600080fd5b6103fd60048080359060200190919050506113e5565b604051808773ffffffffffffffffffffffffffffffffffffffff1673ffffffffffffffffffffffffffffffffffffffff1681526020018060200180602001868152602001858152602001848152602001838103835288818151815260200191508051906020019080838360005b8381101561048557808201518184015260208101905061046a565b50505050905090810190601f1680156104b25780820380516001836020036101000a031916815260200191505b50838103825287818151815260200191508051906020019080838360005b838110156104eb5780820151818401526020810190506104d0565b50505050905090810190601f1680156105185780820380516001836020036101000a031916815260200191505b509850505050505050505060405180910390f35b341561053757600080fd5b61054d60048080359060200190919050506115f0565b604051808673ffffffffffffffffffffffffffffffffffffffff1673ffffffffffffffffffffffffffffffffffffffff16815260200180602001806020018581526020018481526020018381038352878181546001816001161561010002031660029004815260200191508054600181600116156101000203166002900480156106185780601f106105ed57610100808354040283529160200191610618565b820191906000526020600020905b8154815290600101906020018083116105fb57829003601f168201915b505083810382528681815460018160011615610100020316600290048152602001915080546001816001161561010002031660029004801561069b5780601f106106705761010080835404028352916020019161069b565b820191906000526020600020905b81548152906001019060200180831161067e57829003601f168201915b505097505050505050505060405180910390f35b34156106ba57600080fd5b610713600480803590602001908201803590602001908080601f01602080910402602001604051908101604052809392919081815260200183838082843782019150505050505091908035906020019091905050611653565b604051808473ffffffffffffffffffffffffffffffffffffffff1673ffffffffffffffffffffffffffffffffffffffff16815260200180602001838152602001828103825284818151815260200191508051906020019080838360005b8381101561078b578082015181840152602081019050610770565b50505050905090810190601f1680156107b85780820380516001836020036101000a031916815260200191505b5094505050505060405180910390f35b34156107d357600080fd5b6107e9600480803590602001909190505061181a565b005b6108016004808035906020019091905050611a6e565b005b341561080e57600080fd5b610816611cd0565b604051808273ffffffffffffffffffffffffffffffffffffffff1673ffffffffffffffffffffffffffffffffffffffff16815260200191505060405180910390f35b341561086357600080fd5b6108796004808035906020019091905050611cf5565b005b341561088657600080fd5b61088e611d5a565b6040518082815260200191505060405180910390f35b34156108af57600080fd5b610942600480803590602001908201803590602001908080601f0160208091040260200160405190810160405280939291908181526020018383808284378201915050505050509190803590602001908201803590602001908080601f01602080910402602001604051908101604052809392919081815260200183838082843782019150505050505091905050611d60565b005b341561094f57600080fd5b610957611ffc565b6040518082815260200191505060405180910390f35b341561097857600080fd5b610980612009565b6040518082815260200191505060405180910390f35b34156109a157600080fd5b6109a9612053565b6040518082815260200191505060405180910390f35b34156109ca57600080fd5b610a23600480803590602001908201803590602001908080601f01602080910402602001604051908101604052809392919081815260200183838082843782019150505050505091908035906020019091905050612059565b005b3415610a3057600080fd5b610a466004808035906020019091905050612320565b005b3415610a5357600080fd5b610a696004808035906020019091905050612385565b604051808773ffffffffffffffffffffffffffffffffffffffff1673ffffffffffffffffffffffffffffffffffffffff1681526020018060200180602001868152602001858152602001848152602001838103835288818151815260200191508051906020019080838360005b83811015610af1578082015181840152602081019050610ad6565b50505050905090810190601f168015610b1e5780820380516001836020036101000a031916815260200191505b50838103825287818151815260200191508051906020019080838360005b83811015610b57578082015181840152602081019050610b3c565b50505050905090810190601f168015610b845780820380516001836020036101000a031916815260200191505b509850505050505050505060405180910390f35b3415610ba357600080fd5b610bcf600480803573ffffffffffffffffffffffffffffffffffffffff169060200190919050506125cd565b005b3415610bdc57600080fd5b610c2c600480803590602001908201803590602001908080601f01602080910402602001604051908101604052809392919081815260200183838082843782019150505050505091905050612722565b6040518082815260200191505060405180910390f35b6000610c4c6128ac565b610c546128ac565b6000806000610e9860076000896040518082805190602001908083835b602083101515610c965780518252602082019150602081019050602083039250610c71565b6001836020036101000a03801982511681845116808217855250505050505090500191505060405180910390206000191660001916815260200190815260200160002060a060405190810160405290816000820160009054906101000a900473ffffffffffffffffffffffffffffffffffffffff1673ffffffffffffffffffffffffffffffffffffffff1673ffffffffffffffffffffffffffffffffffffffff168152602001600182018054600181600116156101000203166002900480601f016020809104026020016040519081016040528092919081815260200182805460018160011615610100020316600290048015610dd45780601f10610da957610100808354040283529160200191610dd4565b820191906000526020600020905b815481529060010190602001808311610db757829003601f168201915b50505050508152602001600282018054600181600116156101000203166002900480601f016020809104026020016040519081016040528092919081815260200182805460018160011615610100020316600290048015610e765780601f10610e4b57610100808354040283529160200191610e76565b820191906000526020600020905b815481529060010190602001808311610e5957829003601f168201915b50505050508152602001600382015481526020016004820154815250506127ac565b95509550955095509550955091939550919395565b6000809054906101000a900473ffffffffffffffffffffffffffffffffffffffff1673ffffffffffffffffffffffffffffffffffffffff163373ffffffffffffffffffffffffffffffffffffffff16141515610f0857600080fd5b8060048190555050565b60025481565b6000809054906101000a900473ffffffffffffffffffffffffffffffffffffffff1673ffffffffffffffffffffffffffffffffffffffff163373ffffffffffffffffffffffffffffffffffffffff16141515610f7357600080fd5b80600160006101000a81548173ffffffffffffffffffffffffffffffffffffffff021916908373ffffffffffffffffffffffffffffffffffffffff16021790555050565b610fbf6128c0565b60a0604051908101604052803373ffffffffffffffffffffffffffffffffffffffff16815260200184815260200183815260200142815260200160008152509050600580548060010182816110149190612912565b9160005260206000209060050201600083909190915060008201518160000160006101000a81548173ffffffffffffffffffffffffffffffffffffffff021916908373ffffffffffffffffffffffffffffffffffffffff160217905550602082015181600101908051906020019061108d929190612944565b5060408201518160020190805190602001906110aa929190612944565b5060608201518160030155608082015181600401555050508060076000856040518082805190602001908083835b6020831015156110fd57805182526020820191506020810190506020830392506110d8565b6001836020036101000a03801982511681845116808217855250505050505090500191505060405180910390206000191660001916815260200190815260200160002060008201518160000160006101000a81548173ffffffffffffffffffffffffffffffffffffffff021916908373ffffffffffffffffffffffffffffffffffffffff16021790555060208201518160010190805190602001906111a3929190612944565b5060408201518160020190805190602001906111c0929190612944565b506060820151816003015560808201518160040155905050600660003373ffffffffffffffffffffffffffffffffffffffff1673ffffffffffffffffffffffffffffffffffffffff16815260200190815260200160002080548060010182816112299190612912565b9160005260206000209060050201600083909190915060008201518160000160006101000a81548173ffffffffffffffffffffffffffffffffffffffff021916908373ffffffffffffffffffffffffffffffffffffffff16021790555060208201518160010190805190602001906112a2929190612944565b5060408201518160020190805190602001906112bf929190612944565b5060608201518160030155608082015181600401555050507f616a28f2f079341fa5733e9d000b6bcba1249f7780548a37eb2129f1769fc88c8383604051808060200180602001838103835285818151815260200191508051906020019080838360005b8381101561133e578082015181840152602081019050611323565b50505050905090810190601f16801561136b5780820380516001836020036101000a031916815260200191505b50838103825284818151815260200191508051906020019080838360005b838110156113a4578082015181840152602081019050611389565b50505050905090810190601f1680156113d15780820380516001836020036101000a031916815260200191505b5094505050505060405180910390a1505050565b60006113ef6128ac565b6113f76128ac565b60008060006115db60058881548110151561140e57fe5b906000526020600020906005020160a060405190810160405290816000820160009054906101000a900473ffffffffffffffffffffffffffffffffffffffff1673ffffffffffffffffffffffffffffffffffffffff1673ffffffffffffffffffffffffffffffffffffffff168152602001600182018054600181600116156101000203166002900480601f0160208091040260200160405190810160405280929190818152602001828054600181600116156101000203166002900480156115175780601f106114ec57610100808354040283529160200191611517565b820191906000526020600020905b8154815290600101906020018083116114fa57829003601f168201915b50505050508152602001600282018054600181600116156101000203166002900480601f0160208091040260200160405190810160405280929190818152602001828054600181600116156101000203166002900480156115b95780601f1061158e576101008083540402835291602001916115b9565b820191906000526020600020905b81548152906001019060200180831161159c57829003601f168201915b50505050508152602001600382015481526020016004820154815250506127ac565b95509550955095509550955091939550919395565b6005818154811015156115ff57fe5b90600052602060002090600502016000915090508060000160009054906101000a900473ffffffffffffffffffffffffffffffffffffffff1690806001019080600201908060030154908060040154905085565b600061165d6128ac565b600061180d60086000876040518082805190602001908083835b60208310151561169c5780518252602082019150602081019050602083039250611677565b6001836020036101000a038019825116818451168082178552505050505050905001915050604051809103902060001916600019168152602001908152602001600020858154811015156116ec57fe5b906000526020600020906003020160606040519081016040529081600082015481526020016001820160009054906101000a900473ffffffffffffffffffffffffffffffffffffffff1673ffffffffffffffffffffffffffffffffffffffff1673ffffffffffffffffffffffffffffffffffffffff168152602001600282018054600181600116156101000203166002900480601f0160208091040260200160405190810160405280929190818152602001828054600181600116156101000203166002900480156117ff5780601f106117d4576101008083540402835291602001916117ff565b820191906000526020600020905b8154815290600101906020018083116117e257829003601f168201915b505050505081525050612881565b9250925092509250925092565b806002541115151561182b57600080fd5b80600160009054906101000a900473ffffffffffffffffffffffffffffffffffffffff1673ffffffffffffffffffffffffffffffffffffffff166370a08231336000604051602001526040518263ffffffff167c0100000000000000000000000000000000000000000000000000000000028152600401808273ffffffffffffffffffffffffffffffffffffffff1673ffffffffffffffffffffffffffffffffffffffff168152602001915050602060405180830381600087803b15156118f157600080fd5b6102c65a03f1151561190257600080fd5b505050604051805190501015151561191957600080fd5b600160009054906101000a900473ffffffffffffffffffffffffffffffffffffffff1673ffffffffffffffffffffffffffffffffffffffff1663a9059cbb6000809054906101000a900473ffffffffffffffffffffffffffffffffffffffff16836000604051602001526040518363ffffffff167c0100000000000000000000000000000000000000000000000000000000028152600401808373ffffffffffffffffffffffffffffffffffffffff1673ffffffffffffffffffffffffffffffffffffffff16815260200182815260200192505050602060405180830381600087803b1515611a0757600080fd5b6102c65a03f11515611a1857600080fd5b50505060405180519050503373ffffffffffffffffffffffffffffffffffffffff166108fc8260045460035403029081150290604051600060405180830381858888f193505050501515611a6b57600080fd5b50565b600354810234141515611a8057600080fd5b80600160009054906101000a900473ffffffffffffffffffffffffffffffffffffffff1673ffffffffffffffffffffffffffffffffffffffff166370a082316000809054906101000a900473ffffffffffffffffffffffffffffffffffffffff166000604051602001526040518263ffffffff167c0100000000000000000000000000000000000000000000000000000000028152600401808273ffffffffffffffffffffffffffffffffffffffff1673ffffffffffffffffffffffffffffffffffffffff168152602001915050602060405180830381600087803b1515611b6757600080fd5b6102c65a03f11515611b7857600080fd5b5050506040518051905010151515611b8f57600080fd5b600160009054906101000a900473ffffffffffffffffffffffffffffffffffffffff1673ffffffffffffffffffffffffffffffffffffffff166323b872dd6000809054906101000a900473ffffffffffffffffffffffffffffffffffffffff1633846000604051602001526040518463ffffffff167c0100000000000000000000000000000000000000000000000000000000028152600401808473ffffffffffffffffffffffffffffffffffffffff1673ffffffffffffffffffffffffffffffffffffffff1681526020018373ffffffffffffffffffffffffffffffffffffffff1673ffffffffffffffffffffffffffffffffffffffff1681526020018281526020019350505050602060405180830381600087803b1515611cb157600080fd5b6102c65a03f11515611cc257600080fd5b505050604051805190505050565b6000809054906101000a900473ffffffffffffffffffffffffffffffffffffffff1681565b6000809054906101000a900473ffffffffffffffffffffffffffffffffffffffff1673ffffffffffffffffffffffffffffffffffffffff163373ffffffffffffffffffffffffffffffffffffffff16141515611d5057600080fd5b8060038190555050565b60035481565b611d686129c4565b6060604051908101604052804281526020013373ffffffffffffffffffffffffffffffffffffffff16815260200183815250905060086000846040518082805190602001908083835b602083101515611dd65780518252602082019150602081019050602083039250611db1565b6001836020036101000a0380198251168184511680821785525050505050509050019150506040518091039020600019166000191681526020019081526020016000208054806001018281611e2b9190612a02565b916000526020600020906003020160008390919091506000820151816000015560208201518160010160006101000a81548173ffffffffffffffffffffffffffffffffffffffff021916908373ffffffffffffffffffffffffffffffffffffffff1602179055506040820151816002019080519060200190611eae929190612944565b505050507f5c21f2fd62eb2c305c8df2521d7f7ef007efb76e41049b050cdafe9e3cb9ce6c33848442604051808573ffffffffffffffffffffffffffffffffffffffff1673ffffffffffffffffffffffffffffffffffffffff1681526020018060200180602001848152602001838103835286818151815260200191508051906020019080838360005b83811015611f53578082015181840152602081019050611f38565b50505050905090810190601f168015611f805780820380516001836020036101000a031916815260200191505b50838103825285818151815260200191508051906020019080838360005b83811015611fb9578082015181840152602081019050611f9e565b50505050905090810190601f168015611fe65780820380516001836020036101000a031916815260200191505b50965050505050505060405180910390a1505050565b6000600580549050905090565b6000600660003373ffffffffffffffffffffffffffffffffffffffff1673ffffffffffffffffffffffffffffffffffffffff16815260200190815260200160002080549050905090565b60045481565b600081600160009054906101000a900473ffffffffffffffffffffffffffffffffffffffff1673ffffffffffffffffffffffffffffffffffffffff166370a08231336000604051602001526040518263ffffffff167c0100000000000000000000000000000000000000000000000000000000028152600401808273ffffffffffffffffffffffffffffffffffffffff1673ffffffffffffffffffffffffffffffffffffffff168152602001915050602060405180830381600087803b151561212157600080fd5b6102c65a03f1151561213257600080fd5b505050604051805190501015151561214957600080fd5b60076000846040518082805190602001908083835b602083101515612183578051825260208201915060208101905060208303925061215e565b6001836020036101000a0380198251168184511680821785525050505050509050019150506040518091039020600019166000191681526020019081526020016000209050600160009054906101000a900473ffffffffffffffffffffffffffffffffffffffff1673ffffffffffffffffffffffffffffffffffffffff166323b872dd338360000160009054906101000a900473ffffffffffffffffffffffffffffffffffffffff16856000604051602001526040518463ffffffff167c0100000000000000000000000000000000000000000000000000000000028152600401808473ffffffffffffffffffffffffffffffffffffffff1673ffffffffffffffffffffffffffffffffffffffff1681526020018373ffffffffffffffffffffffffffffffffffffffff1673ffffffffffffffffffffffffffffffffffffffff1681526020018281526020019350505050602060405180830381600087803b15156122ed57600080fd5b6102c65a03f115156122fe57600080fd5b5050506040518051905050818160040160008282540192505081905550505050565b6000809054906101000a900473ffffffffffffffffffffffffffffffffffffffff1673ffffffffffffffffffffffffffffffffffffffff163373ffffffffffffffffffffffffffffffffffffffff1614151561237b57600080fd5b8060028190555050565b600061238f6128ac565b6123976128ac565b60008060006125b8600660003373ffffffffffffffffffffffffffffffffffffffff1673ffffffffffffffffffffffffffffffffffffffff168152602001908152602001600020888154811015156123eb57fe5b906000526020600020906005020160a060405190810160405290816000820160009054906101000a900473ffffffffffffffffffffffffffffffffffffffff1673ffffffffffffffffffffffffffffffffffffffff1673ffffffffffffffffffffffffffffffffffffffff168152602001600182018054600181600116156101000203166002900480601f0160208091040260200160405190810160405280929190818152602001828054600181600116156101000203166002900480156124f45780601f106124c9576101008083540402835291602001916124f4565b820191906000526020600020905b8154815290600101906020018083116124d757829003601f168201915b50505050508152602001600282018054600181600116156101000203166002900480601f0160208091040260200160405190810160405280929190818152602001828054600181600116156101000203166002900480156125965780601f1061256b57610100808354040283529160200191612596565b820191906000526020600020905b81548152906001019060200180831161257957829003601f168201915b50505050508152602001600382015481526020016004820154815250506127ac565b95509550955095509550955091939550919395565b6000809054906101000a900473ffffffffffffffffffffffffffffffffffffffff1673ffffffffffffffffffffffffffffffffffffffff163373ffffffffffffffffffffffffffffffffffffffff1614151561262857600080fd5b600073ffffffffffffffffffffffffffffffffffffffff168173ffffffffffffffffffffffffffffffffffffffff161415151561266457600080fd5b8073ffffffffffffffffffffffffffffffffffffffff166000809054906101000a900473ffffffffffffffffffffffffffffffffffffffff1673ffffffffffffffffffffffffffffffffffffffff167f8be0079c531659141344cd1fd0a4f28419497f9722a3daafe3b4186f6b6457e060405160405180910390a3806000806101000a81548173ffffffffffffffffffffffffffffffffffffffff021916908373ffffffffffffffffffffffffffffffffffffffff16021790555050565b600060086000836040518082805190602001908083835b60208310151561275e5780518252602082019150602081019050602083039250612739565b6001836020036101000a038019825116818451168082178552505050505050905001915050604051809103902060001916600019168152602001908152602001600020805490509050919050565b60006127b66128ac565b6127be6128ac565b6000806000806008600089602001516040518082805190602001908083835b60208310151561280257805182526020820191506020810190506020830392506127dd565b6001836020036101000a0380198251168184511680821785525050505050509050019150506040518091039020600019166000191681526020019081526020016000208054905090508760000151886020015189604001518a606001518b60800151858494508393509650965096509650965096505091939550919395565b600061288b6128ac565b60008360200151846040015185600001518191509250925092509193909250565b602060405190810160405280600081525090565b60a060405190810160405280600073ffffffffffffffffffffffffffffffffffffffff1681526020016128f1612a34565b81526020016128fe612a34565b815260200160008152602001600081525090565b81548183558181151161293f5760050281600502836000526020600020918201910161293e9190612a48565b5b505050565b828054600181600116156101000203166002900490600052602060002090601f016020900481019282601f1061298557805160ff19168380011785556129b3565b828001600101855582156129b3579182015b828111156129b2578251825591602001919060010190612997565b5b5090506129c09190612abe565b5090565b60606040519081016040528060008152602001600073ffffffffffffffffffffffffffffffffffffffff1681526020016129fc612a34565b81525090565b815481835581811511612a2f57600302816003028360005260206000209182019101612a2e9190612ae3565b5b505050565b602060405190810160405280600081525090565b612abb91905b80821115612ab757600080820160006101000a81549073ffffffffffffffffffffffffffffffffffffffff0219169055600182016000612a8e9190612b41565b600282016000612a9e9190612b41565b6003820160009055600482016000905550600501612a4e565b5090565b90565b612ae091905b80821115612adc576000816000905550600101612ac4565b5090565b90565b612b3e91905b80821115612b3a576000808201600090556001820160006101000a81549073ffffffffffffffffffffffffffffffffffffffff0219169055600282016000612b319190612b41565b50600301612ae9565b5090565b90565b50805460018160011615610100020316600290046000825580601f10612b675750612b86565b601f016020900490600052602060002090810190612b859190612abe565b5b505600a165627a7a723058207d655e349a765a8814725c0638a7cf4564fbf8255318b31281356994c12aec970029",
  "source": "pragma solidity ^0.4.18;\n\nimport \"./Store.sol\";\n\ncontract Gallery is Store {\n\n    struct Picture {\n        address sender;\n        string referenceImage;\n        string description;\n        uint createdAt;\n        uint hearts;\n    }\n\n    struct Comment {\n        uint createdAt;\n        address sender;\n        string message;\n    }\n\n    event OnCreatePicture(string reference, string message);\n    event OnCreateComment(address sender, string reference, string message, uint createdAt);\n\n    Picture[] public pictures;\n    mapping(address => Picture[]) private pictureByAddress;\n    mapping(bytes32 => Picture) private pictureByReference;\n    mapping(bytes32 => Comment[]) private comments;\n\n    function Gallery(address _token) public {\n        owner = msg.sender;\n        if (_token != address(0)){\n            token = HeartToken(_token);\n        }\n    }\n\n    function sendHeartToPicture(string reference, uint amount) public {\n        require(token.balanceOf(msg.sender) >= amount);\n        Picture storage pic = pictureByReference[keccak256(reference)];\n        token.transferFrom(msg.sender, pic.sender, amount);\n        pic.hearts += amount;\n    }\n\n    function create(string reference, string description) public {\n        Picture memory pic = Picture({\n            sender: msg.sender,\n            referenceImage: reference,\n            description: description,\n            createdAt: now,\n            hearts: 0\n        });\n    \n        pictures.push(pic);\n        pictureByReference[keccak256(reference)] = pic;\n        pictureByAddress[msg.sender].push(pic);\n\n        OnCreatePicture(reference, description);\n    }\n    \n    function createComment(string reference, string message) public {\n        Comment memory comment = Comment({\n            createdAt: now,\n            sender: msg.sender,\n            message: message\n        });\n\n        comments[keccak256(reference)].push(comment);\n        \n        OnCreateComment(msg.sender, reference, message, now);\n    }\n\n    function getParsePicture(Picture pic) private view returns(address, string, string, uint, uint, uint) {\n        uint commentCount = comments[keccak256(pic.referenceImage)].length;\n        return (\n            pic.sender,\n            pic.referenceImage,\n            pic.description,\n            pic.createdAt,\n            pic.hearts,\n            commentCount);\n    }\n\n    function getParseComment(Comment comment) private pure returns(address, string, uint) {\n        return (\n            comment.sender,\n            comment.message,\n            comment.createdAt);\n    }\n    \n    function getPhotoByReference(string reference) public view returns(address, string, string, uint, uint, uint) {\n        return getParsePicture(pictureByReference[keccak256(reference)]);\n    }\n\n    function getPhotoByIndex(uint index) public view returns(address, string, string, uint, uint, uint) {\n        return getParsePicture(pictures[index]);\n    }\n\n    function getMyPhotoByIndex(uint index) public view returns(address, string, string, uint, uint, uint) {\n        return getParsePicture(pictureByAddress[msg.sender][index]);\n    }\n\n    function getCommentByIndex(string reference, uint index) public view returns(address, string, uint) {\n        return getParseComment(comments[keccak256(reference)][index]);\n    }\n\n    function getMyPhotoCount() public view returns(uint) {\n        return pictureByAddress[msg.sender].length;\n    }\n\n    function getCommentCount(string reference) public view returns(uint) {\n        return comments[keccak256(reference)].length;\n    }\n\n    function getCount() public view returns(uint) {\n        return pictures.length;\n    }\n}",
  "sourcePath": "/Users/aroncastrocoelho/projects/comments-contract/contracts/Gallery.sol",
  "compiler": {
    "name": "solc",
    "version": "0.4.19+commit.c4cbbb05.Emscripten.clang"
  },
  "schemaVersion": "2.0.0",
  "updatedAt": "2018-03-27T01:03:02.780Z"
}